:020000040800F2
:1000000000280020A10D0008F10D00088D0E000849
:10001000930E0008990E00089F0E000800000000D3
:10002000000000000000000000000000A50E000815
:10003000F10D00080000000099110008F90E0008F9
:10004000F10D0008F10D0008F10D0008F10D000898
:10005000F10D0008F10D000895010008B901000834
:10006000DD0100080102000825020008F10D00086A
:10007000F10D0008F10D0008F10D0008F10D000868
:10008000F10D0008F10D0008F10D0008F10D000858
:10009000F10D0008F10D0008F10D000849020008FB
:1000A000F10D0008F10D0008F10D0008F10D000838
:1000B000F10D0008F10D0008F10D0008CF05000852
:1000C000C3050008E7050008DB05000889060008ED
:1000D000D1060008690A0008F10D0008F10D0008BA
:1000E000F1020008F10D000800000000F10D000809
:1000F000F10D0008F10D0008F10D0008F10D0008E8
:10010000F10D0008F10D0008F10D0008F10D0008D7
:10011000F10D0008F10D0008F10D0008F10D0008C7
:10012000F10D0008F10D0008F10D0008F10D0008B7
:1001300010B5054C237833B9044B13B10448AFF321
:1001400000800123237010BD180000200000000073
:100150003018000808B5034B1BB103490348AFF33F
:10016000008008BD000000001C00002030180008BE
:1001700010F8012B11F8013B012A28BF9A42F7D051
:10018000D01A7047034613F8012B002AFBD1181A26
:100190000138704780B500AF054B5B69044A43F0F6
:1001A00001035361034B1B68984700BF80BD00BF2C
:1001B000000401404000002080B500AF054B5B69A2
:1001C000044A43F002035361034B5B68984700BF46
:1001D00080BD00BF000401404000002080B500AF9A
:1001E000054B5B69044A43F004035361034B9B686E
:1001F000984700BF80BD00BF0004014040000020C0
:1002000080B500AF054B5B69044A43F008035361B6
:10021000034BDB68984700BF80BD00BF000401406E
:100220004000002080B500AF054B5B69044A43F0F5
:1002300010035361034B1B69984700BF80BD00BF8B
:10024000000401404000002080B500AF264B5B69F0
:1002500003F02003002B08D0234B5B69224A43F0B4
:1002600020035361214B5B6998471F4B5B6903F087
:100270004003002B08D01C4B5B691B4A43F0400332
:1002800053611A4B9B699847174B5B6903F08003D6
:10029000002B08D0144B5B69134A43F08003536171
:1002A000124BDB699847104B5B6903F48073002B9A
:1002B00008D00D4B5B690C4A43F4807353610B4BC0
:1002C0001B6A9847084B5B6903F40073002B08D046
:1002D000054B5B69044A43F400735361034B5B6A4B
:1002E000984700BF80BD00BF0004014040000020CF
:1002F00080B500AF304B5B6903F48063002B09D0FD
:100300002D4B5B692C4A43F4806353612B4B9B6AF2
:1003100098474EE0284B5B6903F40063002B09D03B
:10032000254B5B69244A43F400635361234BDB6A2A
:1003300098473EE0204B5B6903F48053002B09D0C3
:100340001D4B5B691C4A43F4805353611B4B1B6B71
:1003500098472EE0184B5B6903F40053002B09D03B
:10036000154B5B69144A43F400535361134B5B6BA9
:1003700098471EE0104B5B6903F48043002B09D0C3
:100380000D4B5B690C4A43F4804353610B4B9B6BF1
:1003900098470EE0084B5B6903F40043002B08D03C
:1003A000054B5B69044A43F400435361034BDB6B29
:1003B000984700BF80BD00BF0004014040000020FE
:1003C00080B483B000AF78607B680F2B42D801A265
:1003D00052F823F015040008190400081D04000851
:1003E0002104000825040008290400082D04000841
:1003F0003104000835040008390400083D040008F1
:100400004104000845040008490400084D040008A0
:100410005104000800231EE004231CE008231AE016
:100420000C2318E0102316E0142314E0182312E024
:100430001C2310E000230EE004230CE008230AE054
:100440000C2308E0102306E0142304E0182302E044
:100450001C2300E0002318460C37BD4680BC7047C3
:1004600080B584B000AF786039600023BB600023A2
:10047000FB603B681B68072B01D87B6801E07B6849
:100480000433BB603B681B681846FFF799FF0246C0
:100490000F239340DA43BB681B681A40BB681A609D
:1004A0003B685B68062B0BD03B685B68072B07D06B
:1004B0003B685B68052B03D03B685B68042B0AD163
:1004C0003B685B68043B9A003B689B68134303F0FE
:1004D0000F03FB6031E03B685B68002B03D03B6897
:1004E0005B68012B06D13B685B689B0003F00F0340
:1004F000FB6022E03B685B68082B02D10423FB60B1
:100500001BE00823FB603B685B68022B0AD17B6819
:10051000DB683A681268012101FA02F21A437B682B
:10052000DA600AE07B68DB683A681268012101FA48
:1005300002F2D2431A407B68DA603B681B681846B7
:10054000FFF73EFF0246FB6803FA02F2BB681B6836
:100550001A43BB681A6000BF1037BD4680BD80B427
:1005600085B000AFF860B9607A60FB68DB68012194
:10057000BA6801FA02F2D2431A40FB68DA60FB68FB
:10058000DA687968BB6801FA03F31A43FB68DA603A
:1005900000BF1437BD4680BC704780B483B000AF45
:1005A00078600B46FB707B68DB68FA78012101FA02
:1005B00002F25A407B68DA6000BF0C37BD4680BC4F
:1005C000704780B400AF00BFBD4680BC704780B4A8
:1005D00000AF00BFBD4680BC704780B400AF00BF15
:1005E000BD4680BC704780B400AF00BFBD4680BC34
:1005F0007047000080B483B000AF0C4B5B689B0871
:1006000003F003037B607B68012B05D0022B05D030
:10061000002B05D1064B04E0064B02E0054B00E041
:10062000002318460C37BD4680BC704700100240BE
:1006300000127A000024F40080B500AFFFF7DAFF63
:100640000146054B5B681B0903F00703034AD35CB3
:1006500021FA03F3184680BD00100240000000207C
:1006600080B500AFFFF7E8FF0146054B5B68DB0A8A
:1006700003F00703034AD35C21FA03F3184680BD55
:10068000001002401000002080B582B000AF0E4B79
:100690009B6803F00103DAB23B7962F300033B711C
:1006A000094B9B685B0803F00103DAB23B7962F304
:1006B00041033B71054B1B685B693A1D1046984727
:1006C00000BF0837BD4680BD003001407C000020DF
:1006D00080B582B000AF0E4B9B6803F00103DAB225
:1006E0003B7962F300033B71094B9B685B0803F0A5
:1006F0000103DAB23B7962F341033B71054B1B689E
:100700005B693A1D1046984700BF0837BD4680BD5B
:10071000003800407C000020B0B582B000AF7860A7
:100720003960624A3B6813603B685B78012B06D1F5
:100730007B681B6943F400627B681A615EE03B687A
:100740001B78012B5AD17B68DB6843F400527B682D
:10075000DA607B68DB6843F00C027B68DA607B68F8
:10076000DB683A6812791A437B68DA607B681B6938
:100770003A6852791A437B681A61FFF771FF0246A3
:100780003B689B681B01B2FBF3F31C01FFF768FF9A
:10079000024613469B0013449A001A443B689B6828
:1007A0009B00B2FBF3F5FFF75BFF02463B689B68DB
:1007B0001B01B2FBF3F3642202FB03F3EB1A1B01F0
:1007C0003B4AA2FB03235B0903F00F0344EA030245
:1007D0007B689B681A437B689A603B681B7B012B94
:1007E0000CD17B68DB6843F480627B68DA607B68ED
:1007F000DB683A68527B1A437B68DA603B681B7C93
:10080000012B08D17B68DB6843F080027B68DA60EB
:10081000284B01221A703B685B7C012B08D17B6856
:10082000DB6843F020027B68DA60234B01221A70F8
:100830003B689B7C012B08D17B68DB6843F040025E
:100840007B68DA601D4B01221A701A4B1B78002B53
:1008500007D1194B1B78002B03D1184B1B78002BA9
:100860001FD07B68164A934206D1164B5B68154A27
:1008700043F02003536014E07B68134A934206D18F
:10088000104B5B680F4A43F04003536009E07B68FC
:100890000E4A934205D10B4B5B680A4A43F0800332
:1008A000536000BF0837BD46B0BD00BF3800002010
:1008B0001F85EB5134000020350000203600002059
:1008C0000038014000E100E00044004000480040E2
:1008D00080B483B000AF786039600F4B1B78002B79
:1008E0000AD10E4B1B78002B06D100BF7B681B681A
:1008F00003F08003002BF9D0094B1B681B79002BF8
:1009000004D13B681B88DAB27B685A6000BF0C37A1
:10091000BD4680BC704700BF340000203600002078
:100920003800002080B483B000AF78603960194B84
:100930001B78002B0ED1184B1B78002B0AD1174BBC
:100940001B78002B06D100BF7B681B6803F02003D7
:10095000002BF9D0124B1B681B79002B14D1104BC4
:100960001B681B7B002B08D07B685B689BB203F085
:100970007F039AB23B681A8006E07B685B689BB293
:10098000DBB29AB23B681A8000BF0C37BD4680BC10
:10099000704700BF340000203500002036000020E2
:1009A0003800002080B58CB000AF78607B68294AA1
:1009B000934216D109237B620623BB620123FB62AB
:1009C00007F1240319462448FFF74AFD0A237B62F6
:1009D0000823BB6207F1240319461F48FFF740FDB7
:1009E00034E07B681D4A934216D10223BB61062383
:1009F000FB6101233B6207F1180319461648FFF714
:100A00002FFD0323BB610823FB6107F1180319467F
:100A10001148FFF725FD19E07B68114A934215D173
:100A20000A23FB6006233B6101237B6107F10C0372
:100A300019460C48FFF714FD0B23FB6008233B61AC
:100A400007F10C0319460748FFF70AFD00BF3037CE
:100A5000BD4680BD00380140000801400044004010
:100A600000480040000C014080B582B000AF002378
:100A70003B71144B1B685B0903F00103DAB23B794D
:100A800062F300033B710F4B1B689B0903F00103EA
:100A9000DAB23B7962F341033B710A4B1B68DB0915
:100AA00003F00103DAB23B7962F382033B71064B38
:100AB0001B685B693A1D1046984700BF0837BD4662
:100AC00080BD00BF003801403800002080B582B0F2
:100AD00000AF78602D492E48FFF724FF2B4B1B8871
:100AE000103B122B4DD801A252F823F0390B00080D
:100AF000590B0008830B0008830B0008830B0008C8
:100B0000830B0008830B0008830B0008830B00088D
:100B1000830B0008830B0008830B0008830B00087D
:100B2000830B0008830B0008830B0008490B0008A7
:100B3000830B00086B0B0008164B1B78002B1DD194
:100B4000144B01221A7019E0134B1B78002B17D19C
:100B5000114B01221A7013E00E4B00221A70002272
:100B600009210E48FFF7FBFC0BE00B4B00221A702B
:100B7000002208210948FFF7F2FC02E000BF00E074
:100B800000BF00BF0837BD4680BD00BF8000002009
:100B9000003801403C0000203D000020000C0140D6
:100BA00080B584B000AF78607868FFF7EBFA034651
:100BB000FB720023FB600DE0FB687A6813441B782E
:100BC0009AB2084B1A8007490748FFF781FEFB6875
:100BD0000133FB60FB7AFA689A42EDDD00BF103703
:100BE000BD4680BDC80000200038014080B500AF80
:100BF00007E009210548FFF7D0FC0549642000F013
:100C0000CBFC044B1B78012BF3D0FAE7000C01401E
:100C1000840000203C00002080B500AF07E00821E0
:100C20000548FFF7BAFC0549C82000F0B5FC044BA5
:100C30001B78012BF3D0FAE7000C0140CC00002018
:100C40003D00002080B58AB000AF00F035F9444B7C
:100C50009B69434A43F008039361414B9B69404AB7
:100C600043F4804393610823BB610423FB610123A8
:100C70003B6207F1180319463A48FFF7F1FB0923D5
:100C8000BB610423FB6101233B6207F11803194692
:100C90003448FFF7E5FB01233B704FF41653BB606C
:100CA00000237B7100233B7101237B742E4B7B61FE
:100CB0003B4619462D48FFF72FFD2C48FFF772FEE3
:100CC0002B48FFF76DFF2B48FFF76AFF2A48FFF715
:100CD00067FF2A48FFF764FF00F06AFB0346002B1A
:100CE00000D0FEE7264B4FF480621A60244B254A61
:100CF0009A60234B04221A71234B244A92E8030082
:100D000018600433198002330A0C1A701C4800F072
:100D1000C9FB034687F827301D4B4FF480621A60E9
:100D20001B4B1C4A9A601A4B04221A711A4B1B4A1D
:100D300092E8030018600433198002330A0C1A7019
:100D4000134800F0AFFB034687F827300C4800F04B
:100D5000FFFB0F4800F0FCFB00F032FCFEE700BF99
:100D600000100240000C0140CD0A0008003801408C
:100D7000481800085418000864180008741800087F
:100D800084000020ED0B0008A0000020841800085B
:100D9000CC000020190C0008E80000208C18000886
:100DA0000D488546AFF300800C480D490D4A0023DD
:100DB00002E0D458C4500433C4188C42F9D30A4A10
:100DC0000A4C002301E013600432A242FBD300F07E
:100DD0000BFDFFF737FFFEE7002800200000002092
:100DE00018000020A818000818000020A8040020FF
:100DF000FEE7000080B483B000AF03463960FB71AA
:100E000097F90730002B0ADB3B68DAB20C4997F9F7
:100E100007305201D2B20B4483F800230AE03B684A
:100E2000DAB20849FB7903F00F03043B5201D2B256
:100E30000B441A7600BF0C37BD4680BC704700BF1C
:100E400000E100E000ED00E080B582B000AF786026
:100E50007B68013BB3F1807F01D301230FE00A4A95
:100E60007B68013B536007214FF0FF30FFF7C2FF63
:100E7000054B00229A60044B07221A600023184693
:100E80000837BD4680BD00BF10E000E080B400AF71
:100E9000FEE780B400AFFEE780B400AFFEE780B4A9
:100EA00000AFFEE71EF0040F0CBFEFF30880EFF376
:100EB000098000F03BB900BF80B500AF0F216FF093
:100EC0000100FFF797FF00BF80BD000080B400AFB6
:100ED000044B5B68034A43F08053536000BFBD4638
:100EE00080BC704700ED00E080B500AF4FF4FA50D1
:100EF000FFF7AAFF00BF80BD80B500AF074B1B788E
:100F000083F00103DAB2054B1A7000F085FB00F0A4
:100F1000BBF8FFF7DBFF00BF80BD00BF3E00002035
:100F200080B483B000AF0023FB710023BB71214B61
:100F3000D3F89C317B710023FB7130E00023BB713F
:100F400023E0BB791B4A52F823301A79BB7901336D
:100F5000184951F823301B799A4213D9BB79154AA5
:100F600052F823303B60BB795A1CBB79114951F8C8
:100F70002220104941F82320BB7901330D493A68FA
:100F800041F82320BB790133BB71BA797979FB79B8
:100F9000CB1A013B9A42D4DBFB790133FB71FA791E
:100FA0007B79013B9A42C9DB00BF0C37BD4680BC50
:100FB000704700BFFC02002080B584B000AF002362
:100FC000FB6000233B60FFF7ABFF00BF3B461946C9
:100FD0002B4800F0CBFB0346022BF7D144E0294A13
:100FE000FB6852F82330BB60FB680133254A52F896
:100FF00023307B60BB6893F83A30002B31D07B689C
:1010000093F83A30002B08D1B9681D4800F06CFB0A
:10101000BB68032283F83A202EE0BB681A797B680C
:101020001B799A4208D2B968154800F05DFBBB688D
:10103000032283F83A201FE0BB681A797B681B798A
:101040009A4208D1B9680E4800F04EFBBB680322F3
:1010500083F83A2005E0BB681A797B681B799A42CD
:1010600009D8FB680133FB60064BD3F89C21FB6871
:101070009A42B4D800E000BF00BF1037BD4680BD23
:1010800054010020FC02002080B500AF244B1B68F7
:10109000002B1AD1234BD3F8A03193F83A30002B10
:1010A00013D0204BD3F8A031012283F83A201D4BF6
:1010B000D3F8A03119461A4800F016FB194BD3F8A3
:1010C000A031184AC2F8A43127E01749144800F0AB
:1010D0004DFB144BD3F8A431012283F83A20114B75
:1010E000D3F8A0311A790F4BD3F8A4311B799A4267
:1010F00013D10C4BD3F8A03193F83A30002B0CD01D
:10110000084BD3F8A0311946054800F0EDFA054B1D
:10111000D3F8A031032283F83A2000BF80BD00BF7E
:1011200054010020FC020020A004002080B584B0FF
:1011300000AF78607B6818331B68023B1B78FB7339
:10114000FB7B002B20DB012B02DD022B17D01BE0E9
:10115000FFF732FF0E4B93F8A831012B12D10C4B45
:10116000D3F8A0311C330B491846FFF701F80346AA
:10117000002B07D0FFF788FFFFF7A8FE02E0FFF77C
:101180001BFF00E000BF00BF00BF1037BD4680BDA1
:10119000FC020020941800086E4BD3F8A031EFF346
:1011A00009829A616B4BD3F8A0319A69043A9A612B
:1011B000684BD3F8A0319B6922461A60654BD3F87F
:1011C000A0319A69043A9A61624BD3F8A0319B69C5
:1011D0002A461A605F4BD3F8A0319A69043A9A61A3
:1011E0005C4BD3F8A0319B6932461A60594BD3F857
:1011F000A0319A69043A9A61564BD3F8A0319B69A1
:101200003A461A60534BD3F8A0319A69043A9A616E
:10121000504BD3F8A0319B6942461A604D4BD3F82E
:10122000A0319A69043A9A614A4BD3F8A0319B697C
:101230004A461A60474BD3F8A0319A69043A9A613A
:10124000444BD3F8A0319B6952461A60414BD3F806
:10125000A0319A69043A9A613E4BD3F8A0319B6958
:101260005A461A603B4BD3F8A431002B09D0394BB6
:10127000D3F8A431374AC2F8A031364B0022C3F864
:10128000A421344BD3F8A0319B691B689B46314B9A
:10129000D3F8A0319A6904329A612E4BD3F8A03169
:1012A0009B691B689A462B4BD3F8A0319A6904328C
:1012B0009A61284BD3F8A0319B691B689946254B4E
:1012C000D3F8A0319A6904329A61224BD3F8A03145
:1012D0009B691B6898461F4BD3F8A0319A6904326A
:1012E0009A611C4BD3F8A0319B691B681F46194BB0
:1012F000D3F8A0319A6904329A61164BD3F8A03121
:101300009B691B681E46134BD3F8A0319A690432BF
:101310009A61104BD3F8A0319B691B681D460D4B99
:10132000D3F8A0319A6904329A610A4BD3F8A031FC
:101330009B691B681C46074BD3F8A0319A6904329D
:101340009A61044BD3F8A0319B6983F309887047F5
:1013500000BF00BFFC02002080B400AF0B4A0C4B62
:10136000C3F890210A4BD3F89031A3F50063084AE3
:10137000C2F89431064BD3F894310833044AC2F8CA
:10138000983100BFBD4680BC704700BF00280020D8
:10139000FC02002080B400AF044B1B7883F00103F3
:1013A000DAB2024B1A7020BFF6E700BF68010020D6
:1013B00080B582B000AF0023FB71144B002283F88C
:1013C000A821FFF7C9FF64221149124800F06AF909
:1013D0000346002B01D00123FB710F4B0F4A07CAB4
:1013E00003C31A700E4BFF221A710D4B0D4A9A60FF
:1013F0000B4B4FF496721A60094800F053F80346FD
:10140000FB71FB7918460837BD4680BDFC02002001
:101410006C010020540100202C01002094180008C9
:10142000100100209513000880B485B000AF7860EB
:101430007B681B691A467B689A617B689B691A1FE7
:101440007B689A617B689B694FF080721A607B6849
:101450009B691A1F7B689A617B689A687B689B69A5
:101460001A607B689B691A1F7B689A617B689B691D
:101470006FF002021A600023FB600BE07B689B693F
:101480001A1F7B689A617B689B6900221A60FB685F
:101490000133FB60FB680C2BF0DD00BF1437BD4649
:1014A00080BC704780B584B000AF78600023FB73C8
:1014B000194BD3F898217B681A617B681A697B689D
:1014C0001B68D21A7B685A617B685B69134A934236
:1014D00001D202231BE07B685B69083B0E4AC2F81D
:1014E00098317868FFF7A0FF0B4BD3F89C310A497D
:1014F0007A6841F82320084BD3F89C310133064A1F
:10150000C2F89C317B68002283F83A20FB7B1846A6
:101510001037BD4680BD00BFFC020020A80A002095
:1015200080B483B000AF0346FB71FB79012B06D07A
:10153000022B06D0002B00D005E000DF03E001DF26
:1015400001E002DF00BF00BF0C37BD4680BC704722
:1015500080B584B000AF78600023FB737B68022203
:1015600083F83A200020FFF7DBFFFB7B184610379B
:10157000BD4680BD80B584B000AF78600023FB73AA
:101580007B68002283F83A200120FFF7C9FFFB7B2C
:1015900018461037BD4680BD80B582B000AF786078
:1015A00039603B68002283F83C203B687A681A6403
:1015B0003868FFF7DFFF00BF0837BD4680BD000079
:1015C00080B500AF124B012283F8A821104B114ABD
:1015D000C3F8A0210F48FFF7BBFFFFF785FC0C4BBA
:1015E000D3F8A0319B6983F30988EFF314804FF09F
:1015F000020140EA010080F31488EFF3148343F002
:10160000010383F31488034B9B68984700BF80BD98
:10161000FC0200201001002080B582B000AF002342
:101620007B6000237B6031E01D4A7B6852F82330E9
:1016300093F83A30002B26D1194A7B6852F82330B0
:1016400093F83C30002B1ED1154A7B6852F82330AA
:101650001A6C013A1A64124A7B6852F823301B6CE8
:10166000002B10D10E4A7B6852F82330012283F8F8
:101670003C200B4A7B6852F82330022283F83A2040
:101680000220FFF74DFF7B6801337B60044BD3F8EA
:101690009C217B689A42C7D800BF0837BD4680BDF1
:1016A000FC02002080B485B000AFF860B9607A60B9
:1016B000BB68002B01D1032311E0FB68BA68DA6034
:1016C000FB68DA68FB685A60FB68DA68FB689A6056
:1016D000FB687A681A61FB6800221A6000231846CA
:1016E0001437BD4680BC704780B483B000AF7860CB
:1016F00039607B68DB68002B03D07B681B69002B9B
:1017000001D103232DE07B685A687B689B689A426D
:1017100007D17B681A687B681B699A4201D1012353
:101720001FE07B689B683A681A607B681B685A1CDC
:101730007B681A607B689B687A68D26811467A6811
:10174000126992000A44043A934204D17B68DA6831
:101750007B689A6004E07B689B681A1D7B689A60CE
:10176000002318460C37BD4680BC704780B483B058
:1017700000AF786039607B68DB68002B03D07B6842
:101780001B69002B01D1032328E07B685A687B6822
:101790009B689A4201D1022320E07B685B681A684B
:1017A0003B681A607B681B685A1E7B681A607B68FE
:1017B0005B687A68D26811467A68126992000A44B6
:1017C000043A934204D17B68DA687B685A6004E08B
:1017D0007B685B681A1D7B685A60002318460C37CB
:1017E000BD4680BC7047000070B500250C4E0D4C06
:1017F000A41BA410A54209D100F01AF800250A4E36
:101800000A4CA41BA410A54205D170BD56F8253082
:1018100098470135EEE756F8253098470135F2E74D
:10182000A0180008A0180008A0180008A4180008B4
:10183000F8B500BFF8BC08BC9E467047F8B500BFBD
:08184000F8BC08BC9E4670478D
:1018480041542B52455345540D0A000041542B4E28
:10185800414D45544552410D0A00000041542B5555
:101868005549443078464645300D0A0041542B43CB
:101878004841523078444541440D0A005461736B25
:101888005F3100005461736B5F32000069646C65FE
:081898005461736B00000000B5
:0418A00055010008E6
:0418A4003101000806
:1018A800000000000000000001020304050607080C
:0818B80000000000010203041E
:0400000508000DA141
:00000001FF
